:020000040800F2
:100000000000032099450008F5320008013300087C
:1000100009330008113300081933000800000000FC
:100020000000000000000000000000002133000874
:100030002D33000800000000393300084533000864
:10004000E5450008E5450008E5450008E5450008E8
:10005000E5450008E5450008E5450008E5450008D8
:10006000E5450008E5450008E5450008E5450008C8
:10007000E5450008E5450008E5450008E5450008B8
:10008000E5450008E5450008E5450008E5450008A8
:10009000E5450008E5450008E5450008E545000898
:1000A000E5450008E5450008E5450008E545000888
:1000B000E5450008E5450008E5450008E545000878
:1000C000E5450008E5450008E5450008E545000868
:1000D000E5450008E5450008E545000899430008A6
:1000E000E5450008E5450008E5450008E545000848
:1000F000E5450008E5450008E5450008E545000838
:10010000E5450008E5450008E5450008E545000827
:10011000E5450008E5450008E5450008E545000817
:10012000E5450008E5450008E5450008E545000807
:10013000E5450008E5450008E5450008E5450008F7
:10014000E5450008E5450008E5450008E5450008E7
:10015000E5450008E5450008E5450008E5450008D7
:10016000E5450008E5450008E5450008E5450008C7
:10017000E5450008E5450008E5450008E5450008B7
:10018000E5450008E5450008E5450008E5450008A7
:10019000E5450008E5450008E5450008E545000897
:0C01A000E5450008E5450008E5450008BD
:1001B00010B5054C237833B9044B13B10448AFF3A1
:1001C00000800123237010BD700400200000000097
:1001D0001873000808B5064B1BB106480649AFF373
:1001E00000800648036813B1054B03B1984708BD6A
:1001F0000000000018730008740400207004002040
:100200000000000081F0004102E000BF83F00043E5
:1002100030B54FEA41044FEA430594EA050F08BFA1
:1002200090EA020F1FBF54EA000C55EA020C7FEA65
:10023000645C7FEA655C00F0E2804FEA5454D4EBE2
:100240005555B8BF6D420CDD2C4480EA020281EAAC
:10025000030382EA000083EA010180EA020281EAE4
:100260000303362D88BF30BD11F0004F4FEA013136
:100270004FF4801C4CEA113102D0404261EB410145
:1002800013F0004F4FEA03334CEA133302D05242CB
:1002900063EB430394EA050F00F0A780A4F1010487
:1002A000D5F1200E0DDB02FA0EFC22FA05F28018C1
:1002B00041F1000103FA0EF2801843FA05F35941A7
:1002C0000EE0A5F120050EF1200E012A03FA0EFC26
:1002D00028BF4CF0020C43FA05F3C01851EBE37150
:1002E00001F0004507D54FF0000EDCF1000C7EEB6D
:1002F00000006EEB0101B1F5801F1BD3B1F5001FAB
:100300000CD349085FEA30004FEA3C0C04F10104C9
:100310004FEA445212F5800F80F09A80BCF1004FF2
:1003200008BF5FEA500C50F1000041EB045141EA74
:10033000050130BD5FEA4C0C404141EB010111F475
:10034000801FA4F10104E9D191F0000F04BF014620
:100350000020B1FA81F308BF2033A3F10B03B3F1FE
:1003600020020CDA0C3208DD02F1140CC2F10C028E
:1003700001FA0CF021FA02F10CE002F11402D8BFEC
:10038000C2F1200C01FA02F120FA0CFCDCBF41EAB8
:100390000C019040E41AA2BF01EB0451294330BD87
:1003A0006FEA04041F3C1CDA0C340EDC04F1140464
:1003B000C4F1200220FA04F001FA02F340EA03003B
:1003C00021FA04F345EA030130BDC4F10C04C4F181
:1003D000200220FA02F001FA04F340EA0300294661
:1003E00030BD21FA04F0294630BD94F0000F83F4AB
:1003F000801306BF81F480110134013D4EE77FEA8E
:10040000645C18BF7FEA655C29D094EA050F08BFD9
:1004100090EA020F05D054EA000C04BF19461046BA
:1004200030BD91EA030F1EBF0021002030BD5FEAFE
:10043000545C05D14000494128BF41F0004130BD26
:1004400014F580043CBF01F5801130BD01F000457A
:1004500045F0FE4141F470014FF0000030BD7FEAED
:10046000645C1ABF194610467FEA655C1CBF0B46E8
:10047000024650EA013406BF52EA033591EA030FFF
:1004800041F4002130BD00BF90F0000F04BF0021F7
:10049000704730B54FF4806404F132044FF000052A
:1004A0004FF0000150E700BF90F0000F04BF0021A3
:1004B000704730B54FF4806404F1320410F0004509
:1004C00048BF40424FF000013EE700BF42004FEA04
:1004D000E2014FEA31014FEA02701FBF12F07F4381
:1004E00093F07F4F81F06051704792F0000F14BF7E
:1004F00093F07F4F704730B54FF4607401F00045C2
:1005000021F0004120E700BF50EA010208BF704718
:1005100030B54FF000050AE050EA010208BF70470D
:1005200030B511F0004502D5404261EB41014FF476
:10053000806404F132045FEA915C3FF4DCAE4FF07A
:1005400003025FEADC0C18BF03325FEADC0C18BF61
:10055000033202EBDC02C2F1200300FA03FC20FAB2
:1005600002F001FA03FE40EA0E0021FA02F11444FF
:10057000C1E600BF70B54FF0FF0C4CF4E06C1CEA14
:1005800011541DBF1CEA135594EA0C0F95EA0C0F89
:1005900000F0DEF82C4481EA030621EA4C5123EAFC
:1005A0004C5350EA013518BF52EA033541F480112B
:1005B00043F4801338D0A0FB02CE4FF00005E1FBDE
:1005C00002E506F00042E0FB03E54FF00006E1FB28
:1005D00003569CF0000F18BF4EF0010EA4F1FF046B
:1005E000B6F5007F64F5407404D25FEA4E0E6D41AB
:1005F00046EB060642EAC62141EA55514FEAC520BC
:1006000040EA5E504FEACE2EB4F1FD0C88BFBCF537
:10061000E06F1ED8BEF1004F08BF5FEA500E50F1E8
:10062000000041EB045170BD06F0004646EA0101AE
:1006300040EA020081EA0301B4EB5C04C2BFD4EBE0
:100640000C0541EA045170BD41F480114FF0000ED9
:10065000013C00F3AB8014F1360FDEBF002001F047
:10066000004170BDC4F10004203C35DA0C341BDCC1
:1006700004F11404C4F1200500FA05F320FA04F093
:1006800001FA05F240EA020001F0004221F00041C7
:1006900010EBD37021FA04F642EB06015EEA430E3A
:1006A00008BF20EAD37070BDC4F10C04C4F120056A
:1006B00000FA04F320FA05F001FA04F240EA02001D
:1006C00001F0004110EBD37041F100015EEA430EEE
:1006D00008BF20EAD37070BDC4F1200500FA05F20E
:1006E0004EEA020E20FA04F301FA05F243EA02038D
:1006F00021FA04F001F0004121FA04F220EA02009C
:1007000000EBD3705EEA430E08BF20EAD37070BDE1
:1007100094F0000F0FD101F00046400041EB0101C1
:1007200011F4801F08BF013CF7D041EA060195F0A3
:10073000000F18BF704703F00046520043EB03035D
:1007400013F4801F08BF013DF7D043EA060370474A
:1007500094EA0C0F0CEA135518BF95EA0C0F0CD055
:1007600050EA410618BF52EA4306D1D181EA03019B
:1007700001F000414FF0000070BD50EA410606BF95
:100780001046194652EA430619D094EA0C0F02D1DA
:1007900050EA013613D195EA0C0F05D152EA03361F
:1007A0001CBF104619460AD181EA030101F000413D
:1007B00041F0FE4141F470014FF0000070BD41F086
:1007C000FE4141F4780170BD70B54FF0FF0C4CF460
:1007D000E06C1CEA11541DBF1CEA135594EA0C0F7F
:1007E00095EA0C0F00F0A7F8A4EB050481EA030ECC
:1007F00052EA03354FEA013100F088804FEA0333B3
:100800004FF0805545EA131343EA12634FEA022280
:1008100045EA111545EA10654FEA00260EF0004141
:100820009D4208BF964244F1FD0404F5407402D293
:100830005B084FEA3202B61A65EB03055B084FEA24
:1008400032024FF480104FF4002CB6EB020E75EB21
:10085000030E22BFB61A754640EA0C005B084FEA49
:100860003202B6EB020E75EB030E22BFB61A7546C6
:1008700040EA5C005B084FEA3202B6EB020E75EB11
:10088000030E22BFB61A754640EA9C005B084FEA89
:100890003202B6EB020E75EB030E22BFB61A754696
:1008A00040EADC0055EA060E18D04FEA051545EA85
:1008B00016754FEA06164FEAC30343EA52734FEA2E
:1008C000C2025FEA1C1CC0D111F4801F0BD141EAA7
:1008D00000014FF000004FF0004CB6E711F4801F0C
:1008E00004BF01430020B4F1FD0C88BFBCF5E06FEC
:1008F0003FF6AFAEB5EB030C04BFB6EB020C5FEAFC
:10090000500C50F1000041EB045170BD0EF0004E50
:100910004EEA113114EB5C04C2BFD4EB0C0541EA82
:10092000045170BD41F480114FF0000E013C90E67F
:1009300045EA060E8DE60CEA135594EA0C0F08BF43
:1009400095EA0C0F3FF43BAF94EA0C0F0AD150EA42
:1009500001347FF434AF95EA0C0F7FF425AF1046D5
:1009600019462CE795EA0C0F06D152EA03353FF4FD
:10097000FDAE1046194622E750EA410618BF52EA7A
:1009800043067FF4C5AE50EA41047FF40DAF52EA4E
:1009900043057FF4EBAE12E74FF0FF3C06E000BFEB
:1009A0004FF0010C02E000BF4FF0010C4DF804CDF8
:1009B0004FEA410C7FEA6C5C4FEA430C18BF7FEAB8
:1009C0006C5C1BD001B050EA410C0CBF52EA430CE6
:1009D00091EA030F02BF90EA020F0020704710F166
:1009E000000F91EA030F58BF994208BF90422CBFF5
:1009F000D8176FEAE37040F0010070474FEA410CEE
:100A00007FEA6C5C02D150EA013C07D14FEA430C0B
:100A10007FEA6C5CD6D152EA033CD3D05DF8040B7C
:100A2000704700BF8446104662468C4619466346AE
:100A300000E000BF01B5FFF7B7FF002848BF10F185
:100A4000000F01BD4DF808EDFFF7F4FF0CBF0120CA
:100A500000205DF808FB00BF4DF808EDFFF7EAFF46
:100A600034BF012000205DF808FB00BF4DF808ED01
:100A7000FFF7E0FF94BF012000205DF808FB00BFF6
:100A80004DF808EDFFF7CEFF94BF012000205DF880
:100A900008FB00BF4DF808EDFFF7C4FF34BF01208D
:100AA00000205DF808FB00BF4FEA410212F500127A
:100AB00015D211D56FF47873B3EB625212D94FEAA5
:100AC000C12343F0004343EA505311F0004F23FA8F
:100AD00002F018BF404270474FF00000704750EAE4
:100AE000013005D111F0004008BF6FF000407047A1
:100AF0004FF00000704700BF4A0011D212F50012FB
:100B000011D20DD56FF47873B3EB62520ED44FEA65
:100B1000C12343F0004343EA505323FA02F07047E5
:100B20004FF00000704750EA013002D14FF0FF3023
:100B300070474FF0000070474FEA4102B2F1E043C6
:100B400024BFB3F5001CDCF1FE5C0DD901F0004CB4
:100B50004FEAC0024CEA5070B2F1004F40EB830004
:100B600008BF20F00100704711F0804F21D113F130
:100B70003872BCBF01F00040704741F480114FEA69
:100B80005252C2F11802C2F1200C10FA0CF320FAF2
:100B900002F018BF40F001004FEAC1234FEAD3230F
:100BA00003FA0CFC40EA0C0023FA02F34FEA430379
:100BB000CCE77FEA625307D150EA01331EBF4FF002
:100BC000FE4040F44000704701F0004040F0FE401D
:100BD00040F40000704700BF024B13B1024800F020
:100BE00005B8704700000000F90B0008014600201E
:100BF0000246034600F018B838B5094D094C641B8D
:100C0000A41018BF05EB840505D0013C55F8043D40
:100C10009847002CF9D1BDE8384006F083BB00BFEF
:100C2000B09F0008B49F0008F0B5274C2668D6F89E
:100C3000484185B00746002C41D065681F2D1EDD58
:100C4000224818B94FF0FF3005B0F0BD4FF4C8701E
:100C5000039102920193AFF300800399029A019BE2
:100C600004460028EED0D6F8485125600020606088
:100C70000546C6F84841C4F88801C4F88C013FB95C
:100C8000AB1C00200135656044F8231005B0F0BDB1
:100C900004EB85004FF0010CC0F88820D4F888617F
:100CA0000CFA05F21643022FC4F88861C0F8083127
:100CB000E6D1D4F88C311A43C4F88C21E0E706F56C
:100CC000A674C6F84841B8E7C49D000800000000BB
:100CD00080B500AF00F0C8F900F00CFA00F074F82D
:100CE0000346002B01D0042308E000F087F8012020
:100CF000012100F0ADF800F0D3F80023184680BDC4
:100D000080B584B000AF402000F0CCFA034603F079
:100D100080039AB2294B1A80284B1B88002B30D0B5
:100D200000F030F90346FB6000F060F90346BB6059
:100D3000234B1B68FA689A4204D9214B1B68FA6856
:100D4000D31A03E01E4B1A68FB68D31A7B601D4B55
:100D50001B68BA689A4204D91A4B1B68BA68D31A3E
:100D600003E0184B1A68BB68D31A3B607A683B688B
:100D70001344052B05D9124BFA681A60114BBA6857
:100D80001A600F4B1B689AB20C4B5A800D4B1B68B4
:100D90009AB20A4B9A8000F053F903461A46074B61
:100DA000DA804B20012100F0CFF94B20002100F028
:100DB000CBF9024B18461037BD4680BDB804002061
:100DC0008C0400209004002080B500AF00F026F8CD
:100DD00003461A4640F611039A4209D0064B1B6897
:100DE000002B03D100F032FC034602E0012300E0B7
:100DF0000023184680BD00BF0000002080B500AF72
:100E00000320022100F0A0F9022000F055FC03208D
:100E1000002100F099F90023184680BD80B582B00A
:100E200000AF0023FB80002000F03CFA0346FB806B
:100E3000FB881B02FB80012000F034FA03461A46AF
:100E4000FB881343FB80FB8818460837BD4680BDEE
:100E500080B584B000AF02460B46FA71BB71002327
:100E6000FB73042000F01EFA0346FB73BB79002BD2
:100E700007D0FB79DB43DAB2FB7B1340DBB2FB73B9
:100E800003E0FA7BFB791343FB73FB7B04201946D9
:100E900000F05AF9002318461037BD4680BD00BF48
:100EA00080B500AF02200121FFF7D2FF20204921A9
:100EB00000F04AF9022000F0FFFB2120012100F0A0
:100EC00043F91E20002100F035F841209A2100F05E
:100ED0003BF94A20012100F037F94B20012100F0B5
:100EE00033F94B20002100F02FF95620012100F0AA
:100EF0002BF95820012100F027F94020032100F0B0
:100F000023F90B20FF2100F01FF9094B0022DA80A2
:100F1000074BDA88064B9A80054B9A88044B5A8017
:100F2000034B5A88024B1A800023184680BD00BF2D
:100F3000B804002080B584B000AF02460B46FA71B9
:100F4000BB710023FB73172000F0ACF90346FB7361
:100F5000BB79002B04D0FA7BFB791343FB7306E0CB
:100F6000FB79DB43DAB2FB7B1340DBB2FB73FB7B29
:100F70001720194600F0E8F8002318461037BD4640
:100F800080BD00BF80B582B000AF4D2000F078FA80
:100F900003467B607A6840F6B8339A4205DC7B688A
:100FA000C3F571630E337B6004E07B68C3F56D634A
:100FB00008337B607B680C4A82FB03121A44D21010
:100FC000DB17D31A3B603B68002B02DC00233B603D
:100FD00004E03B68F02B01DDEF233B603B689BB2F4
:100FE00018460837BD4680BD8988888880B582B09C
:100FF00000AF4F2000F044FA03463B603B68A3F586
:10100000B4733B603B680D4A82FB03125210DB173E
:10101000D31A7B607B68002B02DC00237B6006E038
:101020007B68B3F5A07F02DD40F23F137B607B68F5
:101030009BB218460837BD4680BD00BFE9A28B2E83
:1010400080B582B000AF512000F01AFA03467B60F1
:101050007B68002B01D100237B607B689BB2184624
:101060000837BD4680BD00BF80B582B000AF4FF4E9
:101070000000012102F06EF840F20510012102F09B
:101080002DF84FF48040012102F082F84FF4000067
:10109000012102F0B9F84FF40000002102F0B4F889
:1010A00012480821042202F005FD114809210422FA
:1010B00002F000FD4FF480733B6002233B7102237A
:1010C0007B710123BB710023FB713B460748194626
:1010D00002F02EFC4FF400733B603B460448194677
:1010E00002F026FC0837BD4680BD00BF000002406C
:1010F0000008024080B584B000AF114B1B889BB242
:1011000003F00103002B17D10023BB804BF6FF73C4
:10111000FB8000233B814FF480637B814FF480434D
:10112000BB81084B3B603B460548194603F090FBEA
:101130000348012103F04EFC1037BD4680BD00BFBF
:10114000005C0040A086010080B584B000AF02467C
:101150000B46FA71BB710023FB604C48012103F080
:1011600059FC4B4B4FF440521A600AE0484B1B6845
:10117000591E474A1160002B03D100F067FA03465D
:1011800080E04248434903F023FD0346002BEDD0A5
:101190003E488221002203F07DFC3D4B4FF440523B
:1011A0001A600AE03A4B1B68591E394A1160002B3D
:1011B00003D100F04BFA034664E03448364903F0AB
:1011C00007FD0346002BEDD0304B1B8B304B4FF40B
:1011D00040521A600AE02E4B1B68591E2C4A1160BF
:1011E000002B03D100F032FA03464BE027482B498D
:1011F00003F0EEFC0346002BEDD0FB7923481946A3
:1012000003F0C8FC224B4FF440521A600AE0204B16
:101210001B68591E1E4A1160002B03D100F016FAFC
:1012200003462FE019481D4903F0D2FC0346002B6A
:10123000EDD0BB791548194603F0ACFC144B4FF4C4
:1012400040521A600AE0124B1B68591E104A116086
:10125000002B03D100F0FAF9034613E00B480F49C5
:1012600003F0B6FC0346002BEDD008480C4903F010
:10127000AFFC0346002BE6D00448012103F0EAFB53
:10128000FB68DBB218461037BD4680BD005C0040ED
:10129000000000200100001002000010800000107B
:1012A0000400001080B584B000AF0346FB7100233A
:1012B000FB736C48012103F0ADFB6B4B4FF44052C4
:1012C0001A600AE0684B1B68591E674A1160002BC0
:1012D00003D100F0BBF90346C0E06248634903F064
:1012E00077FC0346002BEDD05E48002103F0F0FBB5
:1012F0005C488221002203F0CDFB5B4B4FF440524F
:101300001A600AE0584B1B68591E574A1160002B9F
:1013100003D100F09BF90346A0E05248544903F082
:1013200057FC0346002BEDD04E4B1B8B4E4B4FF41E
:1013300040521A600AE04C4B1B68591E4A4A116021
:10134000002B03D100F082F9034687E04548494964
:1013500003F03EFC0346002BEDD0FB7941481946D3
:1013600003F018FC404B4FF440521A600AE03E4B29
:101370001B68591E3C4A1160002B03D100F066F92E
:1013800003466BE037483B4903F022FC0346002B41
:10139000EDD03448384903F01BFC0346002BE6D05F
:1013A0003048012103F036FB2F4B4FF440521A60B6
:1013B0000AE02D4B1B68591E2B4A1160002B03D1EC
:1013C00000F044F9034649E02648284903F000FCB0
:1013D0000346002BEDD023488221012203F05AFB63
:1013E000214B4FF440521A600AE01F4B1B68591EF4
:1013F0001D4A1160002B03D100F028F903462DE0AF
:1014000018481B4903F0E4FB0346002BEDD0154BB5
:101410001B8B154B4FF440521A600AE0124B1B68AD
:10142000591E114A1160002B03D100F00FF9034639
:1014300014E00C48114903F0CBFB0346002BEDD020
:101440000848012103F006FB064803F0B3FB0346FE
:10145000FB730448012103F03BFBFB7B184610376C
:10146000BD4680BD005C004000000020010000106F
:101470000200001080000010040000104000001066
:1014800080B584B000AF786000233B7300237B738A
:101490006848012103F0BEFA674B4FF440521A60CE
:1014A0000AE0654B1B68591E634A1160002B03D18B
:1014B00000F0CCF80346B9E05E48604903F088FBD1
:1014C0000346002BEDD05B488221002203F0E2FAB4
:1014D000594B4FF440521A600AE0574B1B68591E93
:1014E000554A1160002B03D100F0B0F803469DE08F
:1014F0005048534903F06CFB0346002BEDD04D4B95
:101500001B8B4D4B4FF440521A600AE04A4B1B684C
:10151000591E494A1160002B03D100F097F8034689
:1015200084E04448474903F053FB0346002BEDD0C9
:101530007B68DBB23F48194603F02CFB3D48012194
:1015400003F068FA3C4B4FF440521A600AE03A4B01
:101550001B68591E384A1160002B03D100F076F841
:10156000034663E03348354903F032FB0346002B62
:10157000EDD030488221012203F08CFA2E4B4FF43B
:1015800040521A600AE02C4B1B68591E2A4A11600F
:10159000002B03D100F05AF8034647E025482849BC
:1015A00003F016FB0346002BEDD02248002103F088
:1015B0008FFA20484FF4006103F0CCFA1D4B1B8BCF
:1015C0001D4B4FF440521A600AE01B4B1B68591E1A
:1015D000194A1160002B03D100F038F8034625E0CA
:1015E0001448194903F0F4FA0346002BEDD01148D2
:1015F000012103F02FFA0F4803F0DCFA03467B7356
:101600000C4803F0D7FA03463B730A48012103F064
:101610005FFA08484FF2FF7103F09CFA3B7B1A46D1
:101620007B7B1B029BB213439BB29BB218461037C5
:10163000BD4680BD005C004000000020010000109D
:1016400002000010800000100400001080B584B07B
:1016500000AF1748012103F0FDF91548012103F0FF
:1016600057FA1348002103F053FAFFF7FDFC104826
:1016700003F0B4F80023BB804BF6FF73FB8000231C
:101680003B814FF480637B814FF48043BB81094BE6
:101690003B600748012103F09DF93B460448194689
:1016A00003F0D6F8002318461037BD4680BD00BFB2
:1016B000005C0040A086010080B485B000AF786077
:1016C0000023FB607B68084A02FB03F3FB6002E037
:1016D000FB68013BFB60FB68002BF9D11437BD466A
:1016E0005DF8047B704700BFA086010080B500AFA5
:1016F0004FF40000012101F069FD4FF400000021CA
:1017000001F064FD80BD00BF80B487B000AF786099
:1017100000237B6100233B610023FB600023BB604F
:101720004F4A4F4B1B6823F0031323F4F853136005
:101730004B4B4B4A11687A6812680A431A60484B4F
:10174000474A526B22F007025A63454B444A516B99
:101750007A6852680A435A637B685B68002B0CD135
:101760007B68DB681B027B617B681B691B043B6138
:101770007B685B691B06FB603AE07B685B68012B5A
:101780000AD17B68DB681B027B617B681B691B04D9
:101790003B610023FB602BE07B685B68022B0AD176
:1017A0007B68DB685B017B617B681B69DB023B61FB
:1017B0000023FB601CE07B685B68032B0CD17B681B
:1017C000DB685B017B617B681B699B023B617B681B
:1017D0005B69DB03FB600BE07B68DB681B017B6103
:1017E0007B681B691B023B617B685B691B03FB60B9
:1017F0001B4B1B4A916B78693A6910437A6892686F
:101800001043FA6802430A439A63154B7A68926957
:10181000DA63134A124B1B6C23F47F5323F03F030C
:1018200013640F4B0E4A116C7A68D2690A431A642A
:101830007B685B6A1B04BB60094B094A526C02F06F
:1018400040425A64064B064A516C7A68106ABA687C
:1018500002430A435A641C37BD465DF8047B704757
:1018600000B0024080B400AF044B044A126842F05A
:1018700001021A60BD465DF8047B704700B002406B
:1018800080B485B000AF78600023FB73084B5A68C2
:101890007B681340002B02D00123FB7301E000237F
:1018A000FB73FB7B18461437BD465DF8047B70471D
:1018B00000B0024080B58AB000AF78603960002384
:1018C0007B6200233B620023FB610023BB617B68DA
:1018D0001B8A9BB27B627B6A23F440537B623B682A
:1018E000DB887A6A13437B627B6A9AB27B681A82CE
:1018F0007B689B899BB27B627B6A23F4B05323F0A5
:101900000C037B623B689A883B681B8913439AB23D
:101910003B685B8913439BB27A6A13437B627B6AA1
:101920009AB27B689A817B689B8A9BB27B627B6A56
:1019300023F440737B623B689B897A6A13437B6222
:101940007B6A9AB27B689A8207F10803184601F015
:10195000FDFA7A68314B9A4203D07A68304B9A424A
:1019600002D17B693B6201E03B693B627B689B89FA
:101970009BB29BB21BB2002B0CDA3A6A13469B0057
:1019800013449A001A443B681B685B00B2FBF3F3F4
:10199000FB610BE03A6A13469B0013449A001A4419
:1019A0003B681B689B00B2FBF3F3FB61FA691D4BBC
:1019B000A3FB02135B091B017B627B6A1B09642288
:1019C00002FB03F3FA69D31ABB617B689B899BB264
:1019D0009BB21BB2002B0DDABB69DB0003F13202B4
:1019E000104BA3FB02135B0903F007037A6A13434E
:1019F0007B620CE0BB691B0103F13202094BA3FBC4
:101A000002135B0903F00F037A6A13437B627B6A5C
:101A10009AB27B681A812837BD4680BD001001400C
:101A2000001401401F85EB5180B483B000AF786093
:101A30000B46FB70FB78002B08D07B689B899BB220
:101A400043F400539AB27B689A8107E07B689B89D4
:101A50009BB223F400539AB27B689A810C37BD463F
:101A60005DF8047B704700BF80B483B000AF78603E
:101A70000B467B807B88C3F308039AB27B689A800D
:101A80000C37BD465DF8047B704700BF80B483B05F
:101A900000AF78607B689B889BB2C3F308039BB25E
:101AA00018460C37BD465DF8047B704780B487B09C
:101AB00000AF786013460A467A807B7000233B6152
:101AC0000023FB600023BB6000237B617B687B619C
:101AD0007B88DBB25B09DBB23B617B8803F01F03D1
:101AE000FB60FB68012202FA03F3BB603B69012B38
:101AF00003D17B690C337B6109E03B69022B03D185
:101B00007B6910337B6102E07B6914337B617B78F6
:101B1000002B06D07B697A691168BA680A431A609B
:101B200006E07B697A691168BA68D2430A401A6094
:101B30001C37BD465DF8047B704700BF80B485B09C
:101B400000AF78600B467B800023FB737B681B88AB
:101B50009AB27B8813409BB2002B02D00123FB7307
:101B600001E00023FB73FB7B18461437BD465DF88C
:101B7000047B704780B487B000AF78600B467B80F1
:101B80000023FB6000237B610023BB600023FB7408
:101B90007B88DBB25B09DBB2BB607B8803F01F0391
:101BA0007B617B69012202FA03F37B61BB68012B35
:101BB00006D17B689B899BB27A6913407B610FE0F9
:101BC000BB68022B06D17B681B8A9BB27A691340E3
:101BD0007B6105E07B689B8A9BB27A6913407B61DD
:101BE0007B881B0A9BB2FB60FB68012202FA03F3AD
:101BF000FB607B681B889BB2FA681340FB607B69C3
:101C0000002B05D0FB68002B02D00123FB7401E000
:101C10000023FB74FB7C18461C37BD465DF8047B33
:101C2000704700BF80B489B000AF78600023FB61CB
:101C30000023BB6100237B6100233B610023FB6029
:101C40000023BB603F4A3F4B99683F4B0B4093607A
:101C50007B681B691B04FB613A4B3A4A91687A68BE
:101C60005069FA6902430A439A60364A354BD9688B
:101C7000354B0B40D3607B689B691B04BB61314BC8
:101C8000304AD1687A68D069BA6902430A43DA6097
:101C90002C4A2C4B19692C4B0B4013617B681B6A37
:101CA0001B047B61274B274A11697A68506A7A695D
:101CB00002430A431A61234A224B5969224B0B40C3
:101CC00053617B689B6A1B043B611E4B1D4A516933
:101CD0007A68D06A3A6902430A435A61194A194B31
:101CE00099691A4B0B409361164B164A91697A68B1
:101CF00010687A68526810437A68926810437A686C
:101D0000D26802430A439A617B685B6B1B02FB60EB
:101D10007B681B6B1B04BB600A4B0A4AD26A02F049
:101D20007F42DA62074B074AD16AB868FA68104303
:101D30007A68926B02430A43DA622437BD465DF843
:101D4000047B70470068014000F800F08F88FE0FA8
:101D500080B483B000AF0346FB71FB79002B06D043
:101D6000084B084A926942F001029A6105E0054B6E
:101D7000044A926922F001029A610C37BD465DF86F
:101D8000047B70470068014080B483B000AF034615
:101D9000FB71FB79002B06D0084B084A926942F48C
:101DA00080329A6105E0054B044A926922F4803240
:101DB0009A610C37BD465DF8047B704700680140AE
:101DC00080B483B000AF7860034B7A685A620C37F6
:101DD000BD465DF8047B70470068014080B489B05F
:101DE00000AF786039600023FB610023BB610023F2
:101DF0007B6100233B610023FB600023BB603B68E9
:101E00005B681B04FB617B685B6803F470427B6862
:101E10005A603B681A68FB691A437B685A603B68E2
:101E2000DB681B04BB617B689B6803F470427B68C2
:101E30009A603B689A68BB691A437B689A607B68C2
:101E40001B6923F007027B681A613B681A697B688B
:101E50001A613B68DB691B027B613B681B6A1B04E0
:101E60003B613B685B6A1B06FB607B689B697B6828
:101E700000229A613B689A697B691A433B691A435D
:101E8000FB681A437B689A617B685B6923F0FF02F9
:101E90007B685A613B685A697B685A617B68DB6979
:101EA00023F4E06323F007037A68D3613B689A6AFE
:101EB0003B68DB6A1A437B68DA617B689B6A7B68F4
:101EC00000229A623B681A6B7B689A623B689B6B44
:101ED0001B04BB607B68DB6A03F0E0227B68DA628C
:101EE0003B685A6BBB681A437B68DA627B681B6B82
:101EF00023F4FF6323F007037A6813633B68DA6B0C
:101F00007B681A632437BD465DF8047B704700BFC9
:101F100080B483B000AF78600B46FB70FB78002B79
:101F200006D07B681B6843F001027B681A6005E0FD
:101F30007B681B6823F001027B681A600C37BD4682
:101F40005DF8047B704700BF80B483B000AF786059
:101F50000B46FB70FA787B685A610C37BD465DF81A
:101F6000047B704780B483B000AF03463960FB71D7
:101F700097F90730002B0BDA0D49FB7903F00F03BB
:101F8000043B3A68D2B21201D2B20B441A7609E08D
:101F9000084997F907303A68D2B21201D2B20B441D
:101FA00083F800230C37BD465DF8047B704700BF03
:101FB00000ED00E000E100E080B582B000AF7860A5
:101FC0007B68013BB3F1807F01D301230FE00A4B13
:101FD0007A68013A5A604FF0FF300F21FFF7C2FFD5
:101FE000054B00229A60044B07221A600023184612
:101FF0000837BD4680BD00BF10E000E090B585B059
:1020000000AF3B46184600F0A1FF3A68B44BA3FB73
:1020100002139B091846FFF7CFFF02F06BFE02F098
:10202000C3FE002002F030FF002002F07BFF012001
:1020300002F02AFF0120FFF7C3FE0120FFF788FE10
:1020400000F05EFE002002F099FF1F2002F03CFF2E
:102050000020FD21F022282303F0CCF9A14802F052
:1020600053FF4FF6FF7002F02FFF1F2002F03CFFDE
:1020700002F078FF0346DB881A4692001A445200A9
:1020800013449BB21846984903F04CF802F012F939
:1020900000F028FB954B00221A8013E0934B1B881D
:1020A0001A46934B782123F81210904B1B881A463E
:1020B000904B782123F812108C4B1B8801339AB275
:1020C0008A4B1A80894B1B88B3F5B47FE6D38A4BC1
:1020D0001B78012B40F0A38000BF02F0B9F9034642
:1020E000152BFAD9854800F037FB844B1B78FA2B67
:1020F00002D000F0F7FA02E0804800F04FFB01F058
:1021000053F903461A467E4B1B689A421DD901F0CB
:102110004BF90346C8331A46794B1A60AA2002F0DD
:10212000A9F9BB2002F0A6F9CC2002F0A3F975486A
:102130004FF4B47102F0B6F9CC2002F09BF9BB2049
:1021400002F098F9AA2002F095F901F02DF9034662
:102150001A466D4B1B689A4260D901F025F9034677
:1021600032331A46684B1A6000F04AFCFEF7C8FD8D
:102170000246664B1A60654B1B681B88002B4DD0CE
:10218000322001F0FDF8FEF7BBFD02465F4B1A60FE
:102190005E4B1B681B88002B00D19AE25B4B1B68CF
:1021A0005B88F02B3AD8594B1B689B88FC2B35D9A0
:1021B000564B1B689B88B3F5937F2FD204E0FEF744
:1021C0009FFD0246514B1A60504B1B681B88002B29
:1021D000F5D1494B00221A701F2002F075FE002035
:1021E000FD21F022282303F005F93E4802F08CFE81
:1021F0004FF6FF7002F068FE1F2002F075FE02F03D
:10220000B1FE0346DB881A4692001A44520013447A
:102210009BB218463E4902F085FF5AE259E202F0AD
:10222000E7F8FEF76DFD0246384B1A60374B1B6826
:102230001B88002B00F04D82322001F0A1F8FEF740
:102240005FFD0246314B1A60304B1B681B88002B28
:1022500000D13EE22D4B1B685B88F02B5AD82B4BEC
:102260001B689B88FC2B55D9284B1B689B88B3F5B2
:10227000937F4FD204E0FEF743FD0246234B1A60E2
:10228000224B1B681B88002BF5D11B4B01221A70B7
:10229000002002F073FE1F2002F016FE0020FD2138
:1022A000F022282303F0A6F80E4802F02DFE4FF688
:1022B000FF7002F009FE1F2002F016FE02F052FE2F
:1022C0000346DB881A4692001A44520013449BB21C
:1022D0001846054902F026FF00F004FAF9E100BFB4
:1022E000D34D62101800002034730008680A0020E3
:1022F000C40400209C0A002004000020740A00206E
:10230000940A002094070020900A002098040020DE
:1023100044730008164B1B685B88F02B00F2D981D0
:10232000134B1B689B88F02B00F2D381322001F005
:1023300027F8FEF7E5FC02460D4B1A600C4B1B68B4
:102340001B88002B00D1C4E10A4B1B78012B00F243
:102350008B81094B094A1A60064B1B781A46084BB9
:102360004FF6FF7123F81210064B00221A807DE011
:1023700098040020940400206C0D002000007A4492
:102380006C0A0020680A0020AB4B1B881A46AB4B36
:1023900033F812301A46AA4B1B685B88D31A07EE33
:1023A000103AF8EEC77AA74BC3ED007AA24B1B8810
:1023B0001A46A54B33F812301A46A14B1B689B886E
:1023C000D31A07EE103AF8EEC77AA04BC3ED007AA5
:1023D0009C4B93ED007A9B4BD3ED007A67EE277A06
:1023E000984BC3ED007A994B93ED007A974BD3ED60
:1023F000007A67EE277A954BC3ED007A914B93ED07
:10240000007A924BD3ED007A77EE277A17EE900A96
:10241000FEF75CF802460B461046194603F050FDE5
:1024200002460B4610461946FEF786FB0246884BCD
:102430001A60874B93ED007A864BD3ED007AB4EEA9
:10244000E77AF1EE10FA0BD5814B1A68814B1A60CE
:10245000814B1B781A46784B1988804B23F8121051
:10246000754B1B8801339AB2734B1A80724B1B88D1
:10247000B3F5B47F88D3784B1B781A46774B33F883
:1024800012204FF6FF739A4222D04FF4784002F0A8
:102490001BFD714B1B781A46704B33F812301A46ED
:1024A000664B33F812206C4B1B7819466B4B33F894
:1024B00011301946644B33F8113010461946062284
:1024C00002F0F8FF644B1B780133DAB2624B1A70EA
:1024D000614B1B78022B40F0F1804FF4FC6002F05E
:1024E000F3FC5E4B1B881A46544B33F812005B4BCF
:1024F0001B881A46544B33F81210584B5B881A4607
:102500004E4B33F81220554B5B881C464E4B33F82C
:10251000143003F05FF8514B1B881A46474B33F8D1
:1025200012301A464D4B5B881946444B33F8113034
:10253000D31A07EE103AF8EEC77A424BC3ED007A91
:10254000464B1B881A46404B33F812301A46434B11
:102550005B8819463C4B33F81130D31A07EE103A1A
:10256000F8EEC77A394BC3ED007A364B93ED007A1B
:10257000344BD3ED007A67EE277A324BC3ED007A05
:10258000324B93ED007A314BD3ED007A67EE277A28
:102590002E4BC3ED007A2B4B93ED007A2B4BD3EDF2
:1025A000007A77EE277A17EE900AFDF78FFF024642
:1025B0000B461046194603F083FC02460B461046B4
:1025C0001946FEF7B9FA0246214B1A60204B93EDEB
:1025D000007AF3EE097A67EE277A1D4BC3ED007A95
:1025E0001B4B93ED007AF2EE047AC7EE277A184B74
:1025F000C3ED007A164BD3ED007AFCEEE77A17EEC6
:10260000903A9BB2164817491A4601F07BF94FF6EB
:10261000FF7002F059FC002002F066FC02F0A2FC00
:102620000346DB881A46D20013449BB218460C4975
:1026300002F078FD48E000BF680A0020C4040020D2
:10264000980400208C0A00209C0A0020640A0020C4
:10265000C00400206C0D0020940400206C0A0020AF
:10266000700D002054730008002002F087FC00F079
:10267000C7F91F2002F028FC0020FD21F0222823AA
:1026800002F0B8FE134802F03FFC4FF6FF7002F074
:102690001BFC1F2002F028FC02F064FC0346DB88D0
:1026A0001A4692001A44520013449BB218460A4933
:1026B00002F038FD094B00221A7005E004E0FEF735
:1026C0001FFB0246064B1A60054B1B681B88002B3C
:1026D000F5D1FCE4180000204473000894040020A5
:1026E0009804002080B582B000AF0023BB80002397
:1026F0007B8001F07DFE27E000BF01F089FE0346EC
:10270000FA2BFAD11623FB710AE001F081FE034691
:10271000BB80B7F90430002B02DBFB79013BFB7176
:10272000FB79002BF1D11523FB710AE001F070FE5B
:1027300003467B80B7F90230002B02DBFB79013BBB
:10274000FB71FB79002BF1D1B7F90430FA2BD3D10F
:102750000837BD4680BD00BF80B584B000AF78604B
:102760000023FB7313E001F053FE0346BB81B7F96E
:102770000C30002B09DBFB7B7A681344BA89D2B298
:102780001A70FB7B0133FB7301E00023BB81FB7BF1
:10279000152BE8D91037BD4680BD00BF80B588B085
:1027A00000AF78607B6815331B781B029AB27B6898
:1027B00014331B7813439BB2BB83786800F0C4F8D2
:1027C00003467B83BA8B7B8B9A4205D05A4B1B887E
:1027D00004339AB2584B1A807B6801331B78A03BB4
:1027E0009BB29B003B837B6803331B781B02DAB2EE
:1027F0007B6802331B78DBB21343DBB2FB757B686B
:1028000005331B78DB09DBB23B747B6809331B782B
:10281000DB09DBB27B747B680D331B78DB09DBB231
:10282000BB747B6811331B78DB09DBB2FB747B68FC
:1028300005331B7803F040039B11DBB23B737B68CD
:1028400009331B7803F040039B11DBB27B737B6879
:102850000D331B7803F040039B11DBB2BB737B6825
:1028600011331B7803F040039B11DBB2FB733B8BEE
:10287000002B1ED1314B00221A800023FB830EE077
:10288000FA8B2F4B33F81230002B05D02B4B1B88C3
:1028900001339AB2294B1A80FB8B0133FB83FB8BEC
:1028A000B3F5B47FECD3274B00221A80224B0022D1
:1028B0001A800023FB8338E0FB8B07F120021344CE
:1028C00013F8103C002B20D13A8BFB8B1A44FB8B66
:1028D00001339B0079680B441B781946FB8B9B00E6
:1028E0000533786803441B7803F03F031B029BB257
:1028F0000B439BB299B2124B23F81210114B1B8859
:1029000001339AB20F4B1A800CE03A8BFB8B1A44BE
:102910000B4B002123F81210074B1B8801339AB28E
:10292000054B1A80FB8B0133FB83FB8B032BC3D935
:102930002037BD4680BD00BF9E040020A0040020BB
:10294000940700209C04002080B48BB000AF786016
:10295000002387F827301FE097F8273097F82720C3
:10296000520079680A441278114697F827205200DD
:102970000132786802441278120292B20A4392B28B
:1029800092B25B0007F128010B4423F8202C97F842
:102990002730013387F8273097F82730092BDBD908
:1029A00000233B62002387F8273010E03B6A5A007F
:1029B00097F827305B0007F128010B4433F8203CDF
:1029C00013443B6297F82730013387F8273097F894
:1029D0002730092BEAD93B6A9BB2C3F30E039AB2A4
:1029E0003B6ADB0B9BB21344FB83FB8BC3F30E03ED
:1029F000FB8318462C37BD465DF8047B704700BF4B
:102A0000F8B500AF034B4FF000021A60024B0022F2
:102A10001A8061E1980A0020680A0020002002F074
:102A200053FAA54B1B881A46A44B33F81220A24B2D
:102A30001B881946A24B33F8113010461946012263
:102A4000002302F0ABFB9C4B1B881A469B4B33F8D0
:102A5000123001339AB2984B1B881946984B33F8C1
:102A60001130104619460122002302F097FB924BC9
:102A70001B881A46914B33F812208F4B1B8819463E
:102A80008F4B33F8113001339BB2104619460122A7
:102A9000002302F083FB884B1B881A46874B33F8D0
:102AA000123001339AB2844B1B881946844B33F899
:102AB000113001339BB2104619460122002302F067
:102AC0006DFB7D4B1B881A467E4B33F8122040F677
:102AD000B7339A4200F2DA80774B1B881A46794B5B
:102AE00033F81230002B00F0D180734B1B881A464C
:102AF000744B33F8123007EE903AB8EEE77AF3EE03
:102B0000097AC7EE277A704BC3ED007A4FF6FF7053
:102B100002F0DAF9684B1B881E466C4B1B6818469E
:102B2000FDF7D4FC02460B4661A1D1E90001FDF797
:102B30006DFB02460B461046194603F03DF904466C
:102B40000D46614B1B681846FDF7C0FC02460B465C
:102B500020462946FDF70EFD02460B461046194653
:102B60004FF000025A4BFDF753FB02460B4610464E
:102B70001946FDF7C1FF03469AB2504B23F81620C1
:102B80004D4B1B881E46514B1B681846FDF79EFC9B
:102B900002460B4646A1D1E90001FDF737FB02468C
:102BA0000B461046194603F041F904460D46464BC4
:102BB0001B681846FDF78AFC02460B46204629464C
:102BC000FDF7D8FC02460B46104619464FF00002AE
:102BD0003F4BFDF71DFB02460B4610461946FDF71D
:102BE0008BFF03469AB2364B23F81620324B1B88D4
:102BF0001A46324B33F812202F4B1B881946304BA4
:102C000033F81130104619460122002302F0C6FAAB
:102C1000294B1B881A46294B33F8123001339AB2DC
:102C2000254B1B881946264B33F8113010461946A0
:102C30000122002302F0B2FA1F4B1B881A461F4BD9
:102C400033F812201C4B1B8819461D4B33F81130EA
:102C500001339BB2104619460122002302F09EFA6E
:102C6000154B1B881A46154B33F8123001339AB2B4
:102C7000114B1B881946124B33F8113001339BB2AC
:102C8000104619460122002302F088FA0F4B93EDFB
:102C9000007ADFED107A77EE277A0C4BC3ED007ADD
:102CA000054B1B8801339AB2034B1A8014E000BF16
:102CB000182D4454FB21F93F680A0020C404002069
:102CC0009C0A002094070020700A0020980A002027
:102CD00000005E4035FA8E3C074B1B88B3F5B47F8D
:102CE000FFF49CAE40F21F5002F0EEF878207821FD
:102CF000062202F0DFFBF8BD680A0020AFF3008077
:102D000080B500AF4FF6FF7002F038F9FDF7E0FF35
:102D10000346002B40F0B980714802F0F5F802F04C
:102D200021F90346DB885B019BB218466D4902F02E
:102D3000F9F902F017F90346DB881A461201134429
:102D40005B009BB21846684902F0ECF940F21F5054
:102D500002F0BAF80520FA211E221E2302F04AFBD7
:102D600047F6FF7002F0B0F82820FA211E221E2339
:102D700002F040FB4FF6E07002F0A6F84B20FA217B
:102D80001E221E2302F036FB4FF4784002F09CF81E
:102D900005204FF490711E221E2302F02BFB1F20F2
:102DA00002F092F828204FF490711E221E2302F0A8
:102DB00021FB4FF4FC6002F087F84B204FF4907138
:102DC0001E221E2302F016FB4FF61F0002F07CF8B5
:102DD00091204FF490711E221E2302F00BFB002065
:102DE00002F072F86E204FF490711E221E2302F042
:102DF00001FBB4204FF487713022322302F032FA03
:102E00003A4802F081F802F0ADF80346DB881A4632
:102E1000520013449B009BB21846C321432202F088
:102E20005DF90020F821F022002302F0B7F900201C
:102E30004FF48E71B422002302F0B0F90120F82182
:102E40004722012302F0AAF92520F8214722012375
:102E500002F0A4F94820F8214722012302F09EF94C
:102E60006B20F8214722012302F098F98E204FF4BD
:102E70008E712422012302F091F9002040F23F11CB
:102E8000F022002302F08AF929E04FF4784002F0A2
:102E900075F8002002F018F802F064F80346DB88A9
:102EA0001A46520013445B009BB21846104902F0C8
:102EB00039F902F057F80346DB881A46D200D31AD4
:102EC0009BB218460B4902F02DF902F04BF803466D
:102ED000DB88DB009BB21846074902F023F980BD6E
:102EE000300000206073000888730008180000207C
:102EF000B0730008C4730008D873000880B485B0AC
:102F000000AFF860B9607A60074BFA689101BA685F
:102F1000120611437A6812070A43C3F8882014374F
:102F2000BD465DF8047B70470038024080B483B032
:102F300000AF0346FB71044BFA791A600C37BD46AB
:102F40005DF8047B704700BF7000474280B489B0D1
:102F500000AF78600023BB6100237B610023FB612D
:102F600002233B610023FB600223BB60484B9B684C
:102F700003F00C03BB61BB69042B07D0082B09D0FD
:102F8000002B3FD17B68434A1A603FE07B68424A8E
:102F90001A603BE03E4B5B6803F480039B0DFB60D3
:102FA0003B4B5B6803F03F03BB60FB68002B0DD01D
:102FB000394ABB68B2FBF3F2354B596847F6C07328
:102FC0000B409B0903FB02F3FB610CE0314ABB6839
:102FD000B2FBF3F22E4B596847F6C0730B409B09C6
:102FE00003FB02F3FB612A4B5B6803F440331B0CC9
:102FF00001335B003B61FA693B69B2FBF3F27B682A
:103000001A6003E07B68234A1A6000BF204B9B686C
:1030100003F0F003BB61BB691B09BB611F4ABB69BD
:1030200013441B78DBB27B617B681A687B69DA40EA
:103030007B685A60164B9B6803F4E053BB61BB6925
:103040009B0ABB61154ABB6913441B78DBB27B61E9
:103050007B685A687B69DA407B689A600C4B9B6896
:1030600003F46043BB61BB695B0BBB610B4ABB698B
:1030700013441B78DBB27B617B685A687B69DA405A
:103080007B68DA602437BD465DF8047B704700BF7B
:10309000003802400024F40000127A0008000020EA
:1030A00080B485B000AF78600023FB600A4BD3F892
:1030B0008C30FB60FB6823F44033FB60FA687B686C
:1030C0001343FB60044BFA68C3F88C201437BD46E9
:1030D0005DF8047B704700BF0038024080B483B0C5
:1030E00000AF78600B46FB70FB78002B06D0094BD5
:1030F000084A116B7A680A431A6306E0054B054AD1
:10310000116B7A68D2430A401A630C37BD465DF8EA
:10311000047B70470038024080B483B000AF786011
:103120000B46FB70FB78002B06D0094B084A916BCD
:103130007A680A439A6306E0054B054A916B7A6800
:10314000D2430A409A630C37BD465DF8047B704752
:103150000038024080B483B000AF78600B46FB704B
:10316000FB78002B06D0094B084A116C7A680A4399
:103170001A6406E0054B054A116C7A68D2430A408E
:103180001A640C37BD465DF8047B70470038024076
:1031900080B483B000AF78600B46FB70FB78002BE7
:1031A00006D0094B084A516C7A680A435A6406E013
:1031B000054B054A516C7A68D2430A405A640C3771
:1031C000BD465DF8047B70470038024080B483B090
:1031D00000AF78600B46FB70FB78002B06D0094BE4
:1031E000084A11697A680A431A6106E0054B054AE4
:1031F00011697A68D2430A401A610C37BD465DF8FE
:10320000047B70470038024080B483B000AF786020
:103210000B46FB70FB78002B06D0094B084A116A5D
:103220007A680A431A6206E0054B054A116A7A6811
:10323000D2430A401A620C37BD465DF8047B7047E2
:103240000038024080B483B000AF78600B46FB705A
:10325000FB78002B06D0094B084A516A7A680A436A
:103260005A6206E0054B054A516A7A68D2430A4021
:103270005A620C37BD465DF8047B70470038024047
:1032800080B487B000AF0346FB710023FB600023CE
:103290007B610023FB74FB795B09DBB2FB60FB689D
:1032A000012B03D1124B1B687B6109E0FB68022BE9
:1032B00003D10F4B1B6F7B6102E00D4B5B6F7B619A
:1032C000FB7903F01F03FB60FB687A6922FA03F3C2
:1032D00003F00103002B02D00123FB7401E0002363
:1032E000FB74FB7C18461C37BD465DF8047B7047B9
:1032F0000038024080B400AFBD465DF8047B7047E3
:1033000080B400AFFEE700BF80B400AFFEE700BFAF
:1033100080B400AFFEE700BF80B400AFFEE700BF9F
:1033200080B400AFBD465DF8047B704780B400AF49
:10333000BD465DF8047B704780B400AFBD465DF8C4
:10334000047B704780B500AF00F002F880BD00BF7D
:1033500080B400AF084B1B68002B04D0064B1B68E1
:103360005A1E054B1A60054B1B685A1C034B1A600A
:10337000BD465DF8047B7047900D0020A40400203A
:1033800080B483B000AF78607A68064B1A6000BFE3
:10339000044B1B68002BFBD10C37BD465DF8047B4A
:1033A000704700BF900D002080B400AF034B1B6836
:1033B0001846BD465DF8047B704700BFA40400209A
:1033C00080B483B000AF78600B46FB707B68FA78FE
:1033D0001A70012318460C37BD465DF8047B704710
:1033E00080B485B000AF786039600023FB600AE0EC
:1033F0007B685A1C7A603A68511C396012781A70DE
:10340000FB680133FB603B681B78002BF0D1FB6845
:1034100018461437BD465DF8047B704780B586B00A
:1034200000AFF8607A603B600B46FB7200237B6163
:103430007B68013B7B603B68092B10D93A681E4BC7
:10344000A3FB0213DB08FA7AF86811467A68FFF7E3
:10345000E5FF78617B69FA681344FB6011E00DE0D9
:10346000FB7AF8681946FFF7ABFFFB680133FB6096
:103470007B6901337B617B68013B7B607B68002B50
:10348000EEDC39680C4BA3FB0123DA0813469B00E2
:1034900013445B00CA1AD3B23033DBB2F868194662
:1034A000FFF78EFF03467A6913447B617B691846F8
:1034B0001837BD4680BD00BFCDCCCCCC80B586B022
:1034C00000AFF8607A603B600B46FB7200237B61C3
:1034D0003B68002B03DA3B685B423B6101E03B68E1
:1034E0003B617B68013B7B603B69092B21D93B68D1
:1034F000002B0DDA3A692F4BA3FB0213DB085B426A
:10350000FA7AF86811467A68FFF7D8FF78610BE01D
:103510003A69284BA3FB0213DB08FA7AF8681146D4
:103520007A68FFF7CBFF78617B69FA681344FB6028
:1035300026E03B68002B03DA7B68013B7B600EE0F2
:103540000DE0FB7AF8681946FFF73AFFFB68013394
:10355000FB607B6901337B617B68013B7B607B683F
:10356000002BEEDC3B68002B0ADAF8682D21FFF710
:1035700027FF03467A6913447B61FB680133FB60D4
:1035800039690C4BA3FB0123DA0813469B00134453
:103590005B00CA1AD3B23033DBB2F8681946FFF7C2
:1035A0000FFF03467A6913447B617B69184618371D
:1035B000BD4680BDCDCCCCCC80B588B002AFF86024
:1035C0007A600A46FA72BB7200237B617B68013B1A
:1035D0007B603B6A1B09002B12D03B6A1909FA7AFF
:1035E000BB7A0091F86811467A68FFF7E5FF034659
:1035F0007A6913447B617B69FA681344FB6011E0CC
:103600000DE0FB7AF8681946FFF7DAFEFB68013334
:10361000FB607B6901337B617B68013B7B607B687E
:10362000002BEEDC3B6A03F00F03092B0BD83B6A3F
:10363000DBB203F00F03DBB23033DBB2F8681946BC
:10364000FFF7BEFE19E0BB7A002B0BD03B6ADBB262
:1036500003F00F03DBB23733DBB2F8681946FFF72C
:10366000AFFE0AE03B6ADBB203F00F03DBB2573375
:10367000DBB2F8681946FFF7A3FE7B6901337B6173
:103680007B6918461837BD4680BD00BF80B58AB03B
:1036900002AFF860B9607A603B600023BB61002331
:1036A0007B61FB68002B03D0FB6800221A70F8E0F6
:1036B000F7E07B681B78252B0BD0FB685A1CFA605F
:1036C0007A68511C796012781A707B6901337B61CA
:1036D000E7E07B6801331B78252B0BD1FB685A1C74
:1036E000FA6025221A707B6802337B607B690133A4
:1036F0007B61D6E02023FB770023BB777B68013317
:103700007B607B681B78302B05D13023FB777B688F
:1037100001337B600FE00EE0BB7F1A46920013443A
:103720005B00DAB27B681B781344DBB2303BBB77BB
:103730007B6801337B607B681B782F2B03D97B6808
:103740001B78392BE8D9BA7F7B6913441A46BB68CA
:103750009A4205D9BB68DAB27B69DBB2D31ABB7770
:103760007B681B78583B202B00F28D8001A252F819
:1037700023F000BF41380008873800088738000868
:10378000873800088738000887380008873800081D
:10379000873800088738000887380008873800080D
:1037A00071380008F93700088738000887380008A2
:1037B0008738000887380008F9370008873800087C
:1037C00087380008873800088738000887380008DD
:1037D00087380008873800088738000887380008CD
:1037E0005D380008873800080F380008873800085F
:1037F0008738000825380008BA7F3B68191D3960F2
:103800001B68F97FF868FFF759FEB8613EE0BA7FA0
:103810003B68191D39601B68F97FF868FFF7FEFDEA
:10382000B86133E0BA7F3B68191D39601968FB7FC6
:103830000091F86819460023FFF7BEFEB86125E045
:10384000BA7F3B68191D39601968FB7F0091F868E1
:1038500019460123FFF7B0FEB86117E03B681A1D57
:103860003A601B68F8681946FFF7BAFDB8610DE0C9
:103870003B681A1D3A601B68DBB2F8681946FFF70F
:103880009FFDB86102E04FF0FF3325E07B68013314
:103890007B60BB69FA681344FB607A69BB691344B7
:1038A0007B617B681B78002B04D07A69BB689A42E5
:1038B000FFF4FFAE7A69BB689A4203D2FB6800222C
:1038C0001A7008E0FB68013BFB60FB6800221A707D
:1038D0007B69013B7B617B6918462037BD4680BD13
:1038E00080B584B000AFF860B9607A60F868642190
:1038F000BA687B68FFF7CAFE034618461037BD4614
:1039000080BD00BF0EB480B585B000AF786007F110
:103910002003BB607868F969BA68FFF7E1FFF860D7
:10392000FB6818461437BD46BDE8804003B07047B9
:1039300080B487B000AF7860396000237B610023DA
:103940003B610023FB6000237B6176E07B69012201
:1039500002FA03F33B613B681A683B691340FB6062
:10396000FA683B699A4265D17B681A687B695B009B
:10397000032101FA03F3DB431A407B681A607B687A
:103980001A683B681B7919467B695B0001FA03F3EF
:103990001A437B681A603B681B79012B03D03B6894
:1039A0001B79022B2ED17B689A687B695B0003210F
:1039B00001FA03F3DB431A407B689A607B689A68DC
:1039C0003B685B7919467B695B0001FA03F31A4394
:1039D0007B689A607B685A687B699BB2012101FA17
:1039E00003F3DB431A407B685A607B685A683B6884
:1039F0009B7919467B699BB201FA03F39BB21A4388
:103A00007B685A607B68DA687B699BB25B00032144
:103A100001FA03F3DB431A407B68DA607B68DA68FB
:103A20003B68DB7919467B695B0001FA03F31A43B3
:103A30007B68DA607B6901337B617B690F2B85D9F9
:103A40001C37BD465DF8047B704700BF80B483B06F
:103A500000AF78600B467B807B687A881A830C37CE
:103A6000BD465DF8047B704780B483B000AF7860DA
:103A70000B467B807B687A885A830C37BD465DF89D
:103A8000047B704780B483B000AF786013460A4669
:103A90007A807B707B78002B03D07B687A881A83CE
:103AA00002E07B687A885A830C37BD465DF8047B58
:103AB000704700BF80B485B000AF786013460A46F7
:103AC0007A807B700023FB600023BB607A787B8860
:103AD00003F007039B0002FA03F3FB607B88DB081B
:103AE0009BB21A467B88DB089BB219467B6808317B
:103AF00053F821107B8803F007039B000F2000FA86
:103B000003F3DB4319407B68083243F822107B88BB
:103B1000DB089BB21A467B68083253F82220FB6808
:103B20001343BB607B88DB089BB21A467B68083274
:103B3000B96843F822101437BD465DF8047B70471E
:103B400080B592B000AF00F035F801200121FFF7F9
:103B5000E3FA02233B6007237B600423BB60072357
:103B6000FB6002233B6102237B610223BB610123D3
:103B7000FB6100233B6204237B621023BB62402372
:103B8000FB624FF4C0733B6300237B634FF400631D
:103B9000BB630023FB634FF400533B643B467B64F1
:103BA00007F11C03184600F067FA00F00DF94837DA
:103BB000BD4680BD80B582B000AF7E200121FFF7F9
:103BC0008DFA02233B7102237B710023BB7100231A
:103BD000FB71774805210C22FFF76CFF7448062122
:103BE0000C22FFF767FF60233B603B467048194695
:103BF000FFF79EFE6F4800210C22FFF75BFF0123B9
:103C00003B603B466B481946FFF792FE6A4800212D
:103C10000C22FFF74FFF684801210C22FFF74AFFF3
:103C2000654808210C22FFF745FF634809210C2253
:103C3000FFF740FF60480A210C22FFF73BFF5E4878
:103C40000E210C22FFF736FF5B480F210C22FFF7F5
:103C500031FF4CF203733B603B4657481946FFF770
:103C600067FE564800210C22FFF724FF534801212C
:103C70000C22FFF71FFF514807210C22FFF71AFF04
:103C80004E4808210C22FFF715FF4C4809210C2251
:103C9000FFF710FF49480A210C22FFF70BFF4748A6
:103CA0000B210C22FFF706FF44480C210C22FFF7E2
:103CB00001FF42480D210C22FFF7FCFE3F480E2178
:103CC0000C22FFF7F7FE3D480F210C22FFF7F2FE12
:103CD0004FF683733B603B4638481946FFF728FE92
:103CE000374800210C22FFF7E5FE354801210C2260
:103CF000FFF7E0FE324802210C22FFF7DBFE3048DE
:103D000003210C22FFF7D6FE2D4804210C22FFF7D9
:103D1000D1FE2B4805210C22FFF7CCFE28480B21B1
:103D20000C22FFF7C7FE26480C210C22FFF7C2FE2B
:103D300023480D210C22FFF7BDFE21480E210C2245
:103D4000FFF7B8FE1E480F210C22FFF7B3FE4FF617
:103D50003F033B603B461A481946FFF7E9FD194807
:103D600000210C22FFF7A6FE164801210C22FFF7C6
:103D7000A1FE144804210C22FFF79CFE11480521E6
:103D80000C22FFF797FE0F4808210C22FFF792FE46
:103D90000C480F210C22FFF78DFE48F233133B60D5
:103DA0003B4608481946FFF7C3FD0837BD4680BDAE
:103DB0000004024000080240000C024000100240D3
:103DC000001402400018024080B586B000AF002306
:103DD0007B6101237B600823BB600123FB60002320
:103DE0003B6100BF0120202100F026FA0346002B92
:103DF000F8D13B1D184600F0EDF90A2000F05AF802
:103E000002237B600823BB600123FB6000233B612E
:103E100000BF0120202100F00FFA0346002BF8D14B
:103E20003B1D184600F0D6F903237B600823BB60D6
:103E30000423FB6000233B6100BF0120202100F030
:103E4000FBF90346002BF8D13B1D184600F0C2F9E0
:103E500000BF0120202100F0EFF90346002BF8D12C
:103E60003B1D184600F0B6F940F231237B61042374
:103E70007B600823BB600123FB607B693B6100BF63
:103E80000120202100F0D8F90346002BF8D13B1D7A
:103E9000184600F09FF940F26A5000F0BBF900BFED
:103EA0000120202100F0C8F90346002BF8D1183773
:103EB000BD4680BD80B485B000AF78600023FB6054
:103EC0007B68084A02FB03F3FB6002E0FB68013BEE
:103ED000FB60FB68002BF9D11437BD465DF8047B0D
:103EE000704700BFA086010080B500AF154B154A92
:103EF000D2F8882042F47002C3F88820124B124A8C
:103F0000126842F001021A600F4B00229A600E4ABA
:103F10000D4B1B6823F0847323F4803313600A4B2A
:103F20000A4A5A60084B084A126822F480221A6032
:103F3000054B0022DA6000F00BF8024B4FF00062F4
:103F40009A6080BD00ED00E000380240103000248F
:103F500080B483B000AF00237B6000233B60424B02
:103F6000414A126842F480321A603F4B1B6803F4E6
:103F700000333B607B6801337B603B68002B03D1DF
:103F80007B68B3F5A04FF0D1374B1B6803F40033C7
:103F9000002B02D001233B6001E000233B603B6823
:103FA000012B02D1304B314A5A602F4B2E4A126CF2
:103FB00042F080521A642E4B2D4A126842F440425D
:103FC0001A60294B284A92689A60274B264A9268C1
:103FD00042F400429A60244B234A926842F4A05271
:103FE0009A60214B204A126842F080721A6000BF2A
:103FF0001D4B1B6803F00073002BF9D01C4B1C4AAF
:10400000126842F480321A6000BF194B5B6803F4F7
:104010008033002BF9D0164B154A126842F4003257
:104020001A6000BF124B5B6803F40033002BF9D019
:10403000104B40F205721A600B4B0B4A926822F04B
:1040400003029A60084B084A926842F002029A60A2
:1040500000BF054B9B6803F00C03082BF9D10C370C
:10406000BD465DF8047B704700380240085A40079F
:1040700000700040003C024080B487B000AF786020
:1040800000237B6100233B610023FB600023BB60B6
:104090007B685A687B689B681A437B68DB681A43B5
:1040A0007B681B691A437B685B691A437B689B6961
:1040B0001A437B68DB691A437B681B6A1A437B6877
:1040C0005B6A13437B617B681B68002B06D1404B06
:1040D0007A681268796943F8221011E07B68DA691E
:1040E0007B681B6A1A437B685B6A1343FB60384B2F
:1040F000FA681A60364B7A681268796943F82210B8
:104100007B681B68002B30D17B689B6A1B685A1E3A
:104110007B689B6A5B68013B1B011A437B689B6A57
:104120009B68013B1B021A437B689B6ADB68013B6F
:104130001B031A437B689B6A1B69013B1B041A43E0
:104140007B689B6A5B69013B1B051A437B689B6A22
:104150009B69013B1B0613433B611D4B7A68126848
:104160000232396943F822102CE07B689B6A1B6895
:104170005A1E7B689B6A5B68013B1B011A437B6884
:104180009B6A9B68013B1B021A437B689B6A1B6905
:10419000013B1B0413433B617B689B6ADB68013B6B
:1041A0001A037B689B6A5B69013B1B051343BB6079
:1041B000074BBA689A60064B7A681268023239690E
:1041C00043F822101C37BD465DF8047B704700BFE2
:1041D000400100A080B485B000AF78600023FB6090
:1041E0007B681A687B685B681A437B689B68013B45
:1041F0005B011A437B68DB685B021343FB60044B83
:10420000FA681A611437BD465DF8047B704700BF39
:10421000400100A080B483B000AF7860054B054A30
:1042200051697A6852000A435A610C37BD465DF8FD
:10423000047B7047400100A080B485B000AF786077
:1042400039600023FB730023BB607B68102B03D114
:10425000144B5B68BB6012E07B68B3F5807F03D1D1
:10426000114B5B68BB600AE07B68B3F5805F03D1EC
:104270000E4B5B68BB6002E00D4B9B69BB60BA688C
:104280003B681A403B689A4202D00023FB7301E06E
:104290000123FB73FB7B18461437BD465DF8047B96
:1042A000704700BF600000A0800000A0A00000A038
:1042B000400100A080B586B000AF00F05BF84FF47D
:1042C000E133BB600023BB810023FB8100233B82E1
:1042D0000023BB820C237B8204200121FEF7FEFE1B
:1042E0004FF480200121FEF735FF1F480A210722E5
:1042F000FFF7E0FB1C480B210722FFF7DBFB022343
:104300003B7102237B714FF480633B600023BB71E0
:104310000123FB713B4614481946FFF709FB4FF494
:1043200000633B600123BB710023FB713B460E48D9
:104330001946FFF7FDFA07F108030C481946FDF787
:10434000B9FA0A480121FDF76FFB084840F22551F0
:104350000122FDF7ABFB064800F0E0F8044800F04E
:10436000DDF81837BD4680BD000802400048004017
:10437000EC73000880B582B000AF27233B710023A7
:104380007B710023BB710123FB713B1D184600F0BC
:1043900053FC0837BD4680BD80B582B000AF1048E1
:1043A00040F22551FDF7E6FB0346002B15D00C48E3
:1043B000FDF76CFB0346FB710A4B1B881A460A4B40
:1043C0001B88013B9A4208D0064B1B885A1C91B2AD
:1043D000044A1180054AF979D1540837BD4680BD99
:1043E00000480040A8040020AA040020940D0020EA
:1043F00080B400AF044B00221A80044B00221A80C4
:10440000BD465DF8047B7047A8040020AA04002084
:1044100080B400AF0B4B1A880B4B1B889A4208D014
:10442000084B1B885A1C91B2064A1180074AD35C7C
:1044300001E04FF6FF731BB21846BD465DF8047BE2
:10444000704700BFAA040020A8040020940D00209B
:1044500080B400AF054B1A88054B1B88D31A9BB25A
:104460001846BD465DF8047B704700BFA8040020D5
:10447000AA04002080B582B000AF0346FB71FB792F
:104480009BB207481946FDF7EFFA00BF04484021E8
:10449000FDF754FB0346002BF8D00837BD4680BD1E
:1044A0000048004080B584B000AF78600B467B8048
:1044B0000023FB8128E0FB895B007A6813441B889A
:1044C000DBB29BB214481946FDF7CEFA00BF124882
:1044D0004021FDF733FB0346002BF8D0FB895B003E
:1044E0007A6813441B881B0A9BB20B481946FDF7D8
:1044F000BBFA00BF08484021FDF720FB0346002B14
:10450000F8D0FB890133FB81FA897B889A42D2D3A8
:104510001037BD4680BD00BF0048004080B584B064
:1045200000AF78600023FB7312E0FB7B7A681344D2
:104530001B7818481946FDF797FA00BF1548402127
:10454000FDF7FCFA0346002BF8D0FB7B0133FB732D
:10455000FB7B7A6813441B78002BE6D10D480A21B7
:10456000FDF782FA00BF0B484021FDF7E7FA03464A
:10457000002BF8D007480D21FDF776FA00BF05485B
:104580004021FDF7DBFA0346002BF8D01037BD467B
:1045900080BD00BF00480040002100F004B80C4B73
:1045A0005B58435004310B480B4B42189A42FFF4BE
:1045B000F6AF0A4A00F003B8002342F8043B084B68
:1045C0009A42FFF4F9AFFFF78FFCFDF717FD704734
:1045D000B49F000800000020700400207004002038
:1045E000940D0120FFF7FEBF80B582B000AF786068
:1045F0007A682D4B9A420AD14FF480500121FEF780
:1046000021FE4FF480500021FEF71CFE49E07A683D
:10461000264B9A420AD14FF480400121FEF7F4FD67
:104620004FF480400021FEF7EFFD3AE07A68204B1E
:104630009A420AD14FF400400121FEF7E5FD4FF404
:1046400000400021FEF7E0FD2BE07A68194B9A420A
:104650000AD14FF400500121FEF7F4FD4FF4005051
:104660000021FEF7EFFD1CE07A68134B9A420AD155
:104670004FF480100121FEF7E5FD4FF4801000217A
:10468000FEF7E0FD0DE07A680C4B9A4209D14FF439
:1046900000100121FEF7D6FD4FF400100021FEF7B7
:1046A000D1FD0837BD4680BD0030014000380040D4
:1046B000003C0040003401400050014000540140E3
:1046C00080B485B000AF786039600023FB817B68DF
:1046D0001B88FB81FB8903F44153FB813B681A88EB
:1046E0003B685B8813439AB23B689B8813439AB23A
:1046F0003B68DB8813439AB23B681B8913439AB229
:104700003B685B8913439AB23B689B8913439AB217
:104710003B68DB8913439AB2FB891343FB817B68B7
:10472000FA891A807B689B8B9BB223F400639AB250
:104730007B689A833B681A8A7B681A821437BD4665
:104740005DF8047B704700BF80B483B000AF786031
:104750000B46FB70FB78002B08D07B681B889BB254
:1047600043F040039AB27B681A8007E07B681B889D
:104770009BB223F040039AB27B681A800C37BD4687
:104780005DF8047B704700BF80B483B000AF7860F1
:104790000B467B807B687A889A810C37BD465DF832
:1047A000047B704780B485B000AF78600B467B8097
:1047B0000023FB737B681B899AB27B8813409BB2F2
:1047C000002B02D00123FB7301E00023FB73FB7B72
:1047D00018461437BD465DF8047B704780B582B03B
:1047E00000AF78607A68174B9A420AD14FF40010F4
:1047F0000121FEF709FD4FF400100021FEF704FD32
:104800001CE07A68104B9A420AD14FF480000121D3
:10481000FEF7FAFC4FF480000021FEF7F5FC0DE0F6
:104820007A680A4B9A4209D14FF400000121FEF741
:10483000EBFC4FF400000021FEF7E6FC0837BD4614
:1048400080BD00BF0054004000580040005C0040A4
:1048500080B58AB000AF786039600023FB84002304
:104860007B840423BB84574BFB617B689B88FB8460
:10487000FB8C23F03F03FB8407F10C031846FEF783
:1048800065FB7B69FB61FA694F4BA3FB02139B0C31
:104890007B84FA8C7B8C1343FB847B68FA8C9A8034
:1048A0007B681B889BB223F001039AB27B681A8055
:1048B0000023FB843B681A68444B9A4215D83B6836
:1048C0001B685B00FA69B2FBF3F3BB84BB8C032B60
:1048D00001D80423BB84FA8CBB8C1343FB847B8CF0
:1048E00001339AB27B681A8440E03B68DA884BF661
:1048F000FF739A4209D13B681A6813465B00134460
:10490000FA69B2FBF3F3BB840EE03B681A68134606
:104910009B0013449A001344FA69B2FBF3F3BB847F
:10492000BB8C43F48043BB84BB8CC3F30B03002BD1
:1049300003D1BB8C43F00103BB84BA8CFB8C1343C3
:104940009BB26FEA43436FEA5343FB847B8C4FF483
:10495000967202FB03F31E4A82FB03129211DB17CD
:10496000D31A9BB201339AB27B681A847B68FA8CA3
:104970009A837B681B889BB243F001039AB27B68E1
:104980001A807B681B88FB84FB8C23F4816323F0F3
:104990000203FB843B689A883B685B8913439AB2A5
:1049A000FB8C1343FB847B68FA8C1A803B689A89E2
:1049B0003B681B8913439AB27B681A812837BD462E
:1049C00080BD00BF00127A0083DE1B43A086010079
:1049D000D34D621080B483B000AF78600B46FB709B
:1049E000FB78002B08D07B681B889BB243F0010347
:1049F0009AB27B681A8007E07B681B889BB223F021
:104A000001039AB27B681A800C37BD465DF8047BBF
:104A1000704700BF80B483B000AF78600B46FB7076
:104A2000FB78002B08D07B681B889BB243F4807313
:104A30009AB27B681A8007E07B681B889BB223F4DC
:104A400080739AB27B681A800C37BD465DF8047B90
:104A5000704700BF80B483B000AF78600B46FB7036
:104A6000FB78002B08D07B681B889BB243F4007353
:104A70009AB27B681A8007E07B681B889BB223F49C
:104A800000739AB27B681A800C37BD465DF8047BD0
:104A9000704700BF80B483B000AF786013460A4609
:104AA000FA70BB70BB78002B04D0FB7843F0010395
:104AB000FB7003E0FB7823F00103FB70FB789AB2F4
:104AC0007B681A820C37BD465DF8047B704700BFD7
:104AD00080B483B000AF78600B46FB70FB78002B8E
:104AE00008D07B681B889BB243F480639AB27B68D2
:104AF0001A8007E07B681B889BB223F480639AB21C
:104B00007B681A800C37BD465DF8047B704700BF98
:104B100080B483B000AF78600B46FB70FB78002B4D
:104B20000AD07B681B889BB26FEA43436FEA53430A
:104B30009AB27B681A8007E07B681B889BB2C3F33C
:104B40000E039AB27B681A800C37BD465DF8047B71
:104B5000704700BF80B483B000AF78600B467B80A5
:104B60007B88B3F5006F08D17B681B889BB243F448
:104B700000639AB27B681A8007E07B681B889BB24F
:104B800023F400639AB27B681A800C37BD465DF847
:104B9000047B704780B483B000AF78600B46FB7035
:104BA000FB789AB27B681A820C37BD465DF8047BAD
:104BB000704700BF80B483B000AF78607B681B8A09
:104BC0009BB2DBB218460C37BD465DF8047B7047DC
:104BD00080B487B000AF786039600023FB75002394
:104BE0003B610023FB607B68FB603B681B0F3B6104
:104BF0003B6823F07F433B603B69002B03D0FB689D
:104C00001433FB6005E03B681B0C3B60FB6818330A
:104C1000FB60FB681A683B681340002B02D001233D
:104C2000FB7501E00023FB75FB7D18461C37BD4674
:104C30005DF8047B704700BF80B485B000AF78603A
:104C40000023FB730023BB730F237B737B68DB782C
:104C5000002B37D0254BDB68DB4303F4E0631B0AF2
:104C6000FB73FB7BC3F10403BB737A7BFB7B42FAD0
:104C700003F37B737B685B781A46BB7B02FA03F312
:104C8000FB737B689A787B7B1340DAB2FB7B134320
:104C9000FB73FB7B1B01FB73154A7B681B7813447A
:104CA000FA7B83F80023124B7A6812785209D2B249
:104CB0007968097801F01F01012000FA01F143F839
:104CC00022100EE00A4B7A6812785209D2B2796843
:104CD000097801F01F01012000FA01F1203243F8A8
:104CE00022101437BD465DF8047B704700ED00E0EC
:104CF00000E100E080B590B000AF00F0C3FE0020FE
:104D000000F0ACF8012000F0A9F800F0F7FE00F088
:104D100071FD4FF080600121FEF73AFA4FF4000078
:104D20000121FEF7DBF900F053FFFEF709FF002336
:104D30007B600023BB600023FB6000233B610023FA
:104D40007B630023BB630023FB63C0200721042295
:104D5000FEF7D4F84FF40030FEF7A2F90120FEF779
:104D6000E5F800BF3D20FEF78BFA0346002BF9D093
:104D700009237B610123BB611D23FB6103233B628C
:104D800040F20D137B6240F24313BB6240F21713F3
:104D9000FB6240F247133B633B1D1846FCF742FFA2
:104DA0004037BD4680BD00BF80B590B000AF1E2328
:104DB0003B6040F20D137B600423BB6040F2431361
:104DC000FB6002233B61FF237B610023BB61002367
:104DD000FB6100233B6200237B624FF48063BB6274
:104DE0000523FB6240F2E3137B634FF4F073BB6374
:104DF0004FF4A073FB634FF050433B633B461348B3
:104E00001946FCF7EBFF124B3B634FF4C063BB62E8
:104E10000723FB623B460F481946FCF7DFFF0120E2
:104E2000FCF7CEFF09480121FDF772F8094801217E
:104E3000FDF76EF80120FCF7C3FF074800F064F8A7
:104E40000120FCF7A1FF4037BD4680BD84680140CA
:104E5000000005D0046901401800002080B582B030
:104E600000AF0346FB71FB79002B04D105480421F8
:104E7000FEF7FAFD03E003480421FEF7E7FD0837DB
:104E8000BD4680BD0008024080B483B000AF7860AA
:104E90007B68002B07D1094B4FF050421A60084B3A
:104EA00000221A6005E0054B064A1A60044B0122F5
:104EB0001A600C37BD465DF8047B70473C0000204B
:104EC000B4040020000005D080B483B000AF0346D6
:104ED000FB80044BFA881A800C37BD465DF8047BD2
:104EE000704700BFB004002080B483B000AF034619
:104EF000FB80044BFA881A800C37BD465DF8047BB2
:104F0000704700BF3800002080B483B000AF7860E5
:104F1000034B7A681A600C37BD465DF8047B704716
:104F2000AC04002080B582B000AF0346FB710A4B91
:104F30001B68002B05D1FB7908481946FDF704F8DA
:104F400004E0FB7906481946FCF7FEFF0120FCF758
:104F500037FF0837BD4680BDB40400208468014097
:104F60000469014080B400AF034B1B681846BD467E
:104F70005DF8047B704700BFAC04002080B485B0AE
:104F800000AF0346FB800023FB600023FB6009E0C9
:104F9000FB685A00084B1B681344FA881A80FB68A8
:104FA0000133FB60FB68B3F5A02FF1D31437BD4686
:104FB0005DF8047B704700BF3C00002080B487B0E0
:104FC00000AF0B463A600246FA80BB8000237B614B
:104FD00000233B610023BB600023FB60FA8813467B
:104FE0001B019B1A5B01BB60BB88FA681344FB6022
:104FF00000237B615CE000233B6148E07B695B0050
:105000003A6813441B881A462F4B1B6899882F4B0C
:10501000A3FB0103DB089BB2DB00802199403B69C5
:1050200041FA03F31340002B04D1274B1B689B88E4
:105030000C2B11D97B695B003A6813441B881A4614
:105040003B6942FA03F303F00103002B0FD11E4B1F
:105050001B689B880C2B0AD9FB685A001C4B1B68E9
:105060001A44BB6813441B4A12881A8009E0FB6883
:105070005A00174B1B681A44BB681344164A12881F
:105080001A80FB680133FB603B6901333B610E4BC7
:105090001B689B881A463B699A42AFD80A4B1B682B
:1050A0009B88FA68D31AF033FB607B6901337B611C
:1050B000054B1B68DB881A467B699A429BD81C37D4
:1050C000BD465DF8047B7047AC040020ABAAAAAAD9
:1050D0003C00002038000020B004002080B582B0E1
:1050E00000AF13460246FA800A46BA80FB70FB788E
:1050F000203BFB700A4B1B681A68FB78084909685B
:10510000C98801FB03F35B001344F988BA88084699
:1051100011461A46FFF752FF0837BD4680BD00BF53
:10512000AC04002080B584B000AF03463960FB803A
:105130000023FB8111E03B681B78F988FA89084657
:1051400011461A46FFF7CAFF134B1B689A88FB8962
:105150001344FB813B6801333B60FB89EF2B18D87C
:105160003B681B78002B0CBF00230123DAB2F989BE
:10517000094B1B689B880B4499B2074B1B689B88A3
:105180009942B4BF00230123DBB21340DBB2002BF2
:10519000D1D11037BD4680BDAC04002080B590B0A1
:1051A00000AFF880B9807A807B700023FB63002316
:1051B0007B8700233B870023FB86BA8813461B01AD
:1051C0009B1A1B011A46FB8813445B001A46234BAB
:1051D0001B681344FB63224B1B88DB0A7B87204B35
:1051E0001B8803F01F03FB861D4B1B8803F4FC6325
:1051F0009BB25B093B87FCF779FA4FF44033FB60C5
:1052000002233B613B8FBB61FB8E7B617B8FFB612C
:105210000F233B62FB6B7B627B78002B06D1002364
:10522000BB620123FB627B883B6305E0EF23BB622B
:105230007B88FB6201233B6307F10C031846FCF7F4
:1052400063FAFCF70FFB00BF0220FCF719FB0346D3
:10525000002BF9D04037BD4680BD00BF3C00002088
:10526000B004002080B582B000AFF880B9807A80A9
:105270003B80F988BA883B88084611461A460023C5
:10528000FFF78CFFBA887B8813449AB2F9883B8871
:10529000084611461A460023FFF780FFF988BA88AE
:1052A0007B88084611461A460123FFF777FFFA88E4
:1052B0003B88134499B2BA887B88084611461A463F
:1052C0000123FFF76BFF0837BD4680BD80B487B070
:1052D00000AF13460246FA800A46BA807B807B887C
:1052E0005B427B6100233B617A881346DB079B1A94
:1052F0005B000233FB60FA887B69D11ABA883B698C
:105300001A4413461B019B1A1B010B445B001A46EF
:10531000364B1B681344364A12881A80FA887B6918
:10532000D118BA883B691A4413461B019B1A1B010A
:105330000B445B001A462D4B1B6813442C4A128801
:105340001A80FA887B69D118BA883B69D21A134649
:105350001B019B1A1B010B445B001A46234B1B6865
:105360001344234A12881A80FA887B69D11ABA88B2
:105370003B69D21A13461B019B1A1B010B445B00AD
:105380001A461A4B1B681344194A12881A80FB6884
:10539000BB60BA683B699A4213DC3B6901333B61ED
:1053A0003B695B000133FA681344FB607B695A4236
:1053B0003B699A4205D1BA687B699A4201DC0023B5
:1053C000BB60BA687B699A4208DD7B6901337B6107
:1053D0007B695B000133FA681344FB607B69002B37
:1053E00089DD1C37BD465DF8047B70473C0000201A
:1053F000B004002080B590B000AFF880B9807A800A
:105400003B800023FB6300237B8700233B87002333
:10541000FB86264B1B88DB0A7B87244B1B8803F00B
:105420001F03FB86214B1B8803F4FC639BB25B09C3
:105430003B87BA8813461B019B1A1B011A46FB883F
:1054400013445B001A461A4B1B681344FB63FCF7BA
:105450004DF94FF44033FB6002233B613B8FBB614E
:10546000FB8E7B617B8FFB610F233B62FB6B7B625F
:105470007B88C3F1F003BB623B88FB627B883B63A4
:1054800007F10C031846FCF73FF9FCF7EBF900BFF6
:105490000220FCF7F5F90346002BF9D0034B1B88DB
:1054A0001846FFF711FD4037BD4680BDB00400200F
:1054B0003C00002080B586B000AF13460246FA805B
:1054C0000A46BA807B807B885B00C3F103037B6163
:1054D00000233B617B88FB606DE0FB68002B27D0DD
:1054E0003B699BB2FA88D31A99B2FB689BB2BA881F
:1054F000D31A9AB2FB689BB25B009BB20846114676
:105500001A460123FFF74AFE3B699AB2FB8813440F
:1055100099B2FB689BB2BA88D31A9AB2FB689BB265
:105520005B009BB2084611461A460123FFF736FE80
:105530003B69002B27D0FB689BB2FA88D31A99B23B
:105540003B699BB2BA88D31A9AB23B699BB25B00A3
:105550009BB2084611461A460123FFF71FFEFB685F
:105560009AB2FB88134499B23B699BB2BA88D31AAA
:105570009AB23B699BB25B009BB2084611461A4641
:105580000123FFF70BFE7B69002B06DA3B699A00CB
:105590007B69134406337B610AE03A69FB68D31ADE
:1055A0009A007B6913440A337B61FB68013BFB6013
:1055B0003B6901333B613A69FB689A428DD9F988AE
:1055C000BA887B88084611461A46FFF77FFE1837CF
:1055D000BD4680BD80B58AB000AFF880B9807A80C2
:1055E0003B8000233B820023FB810023FB840023BC
:1055F000BB8400237B8400233B840023FB830023A4
:10560000BB8300237B8300233B830023FB82002397
:10561000BB8200237B827A88FB88D31A002BB8BF19
:105620005B423B823A88BB88D31A002BB8BF5B42EF
:10563000FB81FB88FB84BB88BB847A88FB889A4209
:1056400004D301237B8401233B8405E04FF6FF73E1
:105650007B844FF6FF733B843A88BB889A4204D31D
:105660000123FB830123BB8305E04FF6FF73FB831C
:105670004FF6FF73BB83B7F91020B7F90E309A428B
:1056800010DB00237B840023BB833B8A7B83B7F939
:105690001030DA0F13445B103B83FB89FB823B8A9B
:1056A000BB820FE000233B840023FB83FB897B83C9
:1056B000B7F90E30DA0F13445B103B833B8AFB8251
:1056C000FB89BB8200237B822EE0B7F92620B7F945
:1056D00024301046194600F037FB3A8BFB8A1344FE
:1056E0009BB23B83B7F91820B7F91A309A420EDB08
:1056F0003A8B7B8BD31A9BB23B83FA8C7B8C134403
:105700009BB2FB84BA8CFB8B13449BB2BB84FA8C98
:105710003B8C13449BB2FB84BA8CBB8B13449BB26F
:10572000BB847B8A01337B82B7F91220B7F914302E
:105730009A42CADD2837BD4680BD00BF80B582B021
:1057400000AF0346FB7112484FF40051002200F0F5
:10575000C3F90020FFF782FBFB799BB20D48194685
:10576000FFF712F800BF0B480221FFF71BF80346B2
:10577000002BF8D000BF07488021FFF713F803463D
:10578000002BF8D10120FFF769FB0837BD4680BD2B
:10579000000C02400050014080B582B000AF0346CB
:1057A000FB7112484FF40051012200F095F90020DE
:1057B000FFF754FBFB799BB20D481946FEF7E4FF57
:1057C00000BF0B480221FEF7EDFF0346002BF8D087
:1057D00000BF07488021FEF7E5FF0346002BF8D104
:1057E0000120FFF73BFB0837BD4680BD000C02409F
:1057F0000050014080B500AFCA20FFF79FFFC320D3
:10580000FFF7CAFF0820FFF7C7FF5020FFF7C4FFCC
:10581000CF20FFF793FF0020FFF7BEFFC120FFF767
:10582000BBFF3020FFF7B8FFED20FFF787FF6420B4
:10583000FFF7B2FF0320FFF7AFFF1220FFF7ACFF27
:105840008120FFF7A9FFE820FFF778FF8520FFF709
:10585000A3FF0020FFF7A0FF7820FFF79DFFCB20DC
:10586000FFF76CFF3920FFF797FF2C20FFF794FF1D
:105870000020FFF791FF3420FFF78EFF0220FFF793
:105880008BFFF720FFF75AFF2020FFF785FFEA2064
:10589000FFF754FF0020FFF77FFF0020FFF77CFF9A
:1058A000B120FFF74BFF0020FFF776FF1B20FFF72B
:1058B00073FFB620FFF742FF0A20FFF76DFFA2201B
:1058C000FFF76AFFC020FFF739FF1020FFF764FFE2
:1058D000C120FFF733FF1020FFF75EFFC520FFF761
:1058E0002DFF4520FFF758FF1520FFF755FFC72074
:1058F000FFF724FF9020FFF74FFF3620FFF71EFF32
:10590000C820FFF749FFF220FFF718FF0020FFF73C
:1059100043FFB020FFF712FFC220FFF73DFFB62084
:10592000FFF70CFF0A20FFF737FFA720FFF734FF30
:105930002720FFF731FF0420FFF72EFF2A20FFF773
:10594000FDFE0020FFF728FF0020FFF725FF0020C5
:10595000FFF722FFEF20FFF71FFF2B20FFF7EEFEE0
:105960000020FFF719FF0020FFF716FF0120FFF7C7
:1059700013FF3F20FFF710FFF620FFF7DFFE0120A7
:10598000FFF70AFF0020FFF707FF0620FFF704FFDD
:105990002C20FFF7D3FEC82000F0FAF92620FFF7ED
:1059A000CDFE0120FFF7F8FEE020FFF7C7FE0F2035
:1059B000FFF7F2FE2920FFF7EFFE2420FFF7ECFEB1
:1059C0000C20FFF7E9FE0E20FFF7E6FE0920FFF7A7
:1059D000E3FE4E20FFF7E0FE7820FFF7DDFE3C20DF
:1059E000FFF7DAFE0920FFF7D7FE1320FFF7D4FEFA
:1059F0000520FFF7D1FE1720FFF7CEFE1120FFF79D
:105A0000CBFE0020FFF7C8FEE120FFF797FE002045
:105A1000FFF7C2FE1620FFF7BFFE1B20FFF7BCFEFC
:105A20000420FFF7B9FE1120FFF7B6FE0720FFF7AD
:105A3000B3FE3120FFF7B0FE3320FFF7ADFE42206A
:105A4000FFF7AAFE0520FFF7A7FE0C20FFF7A4FE34
:105A50000A20FFF7A1FE2820FFF79EFE2F20FFF768
:105A60009BFE0F20FFF798FE1120FFF767FEC8206E
:105A700000F08EF92920FFF761FE2C20FFF75EFE73
:105A800080BD00BF80B582B000AF0C200121FDF7C2
:105A900025FB04233B6002237B7101233B71002320
:105AA000BB710023FB713B4609481946FDF740FFD7
:105AB0004FF400533B603B4606481946FDF738FF5C
:105AC00003480421012200F007F80837BD4680BDD5
:105AD00000080240000C024080B582B000AF786040
